:100000000C94D7040C94FF040C94FF040C94FF048C
:100010000C94FF040C94FF040C94FF040C94FF0454
:100020000C94FF040C94FF040C94E5210C945422CE
:100030000C94FF040C94FF040C94FF040C94FF0434
:100040000C94FF040C94FF040C94FF040C94FF0424
:100050000C94FF040C94FF040C94FF040C9486246D
:100060000C94FF040C94FF040C94FF040C94FF0404
:100070000C94FF040C94FF040C94FF040C94FF04F4
:100080000C94FF040C94FF040C94FF040C94FF04E4
:100090000C94FF040C94FF040C94FF040C94FF04D4
:1000A0000C94FF040C94FF040C94FF04506C6169E1
:1000B0006E7320576172776F6C6600537069726F50
:1000C00064656E64726F6269756D00506C61746511
:1000D0006420436F796F7465004F726368696420B0
:1000E0004369636164610054686F726E792045757D
:1000F000676C656E6100426C617A65736C696D65F1
:100100000041717561736C696D650043686C6F7255
:100110006F736C696D65004558412D494900447203
:1001200061636F005A6F6C004C7972610048616EB8
:1001300061004B616972650054616B6520706F737B
:100140006974696F6E21006E65656420746F646107
:10015000793F005768617420646F20796F75005B88
:1001600054335D005B54325D005B54315D005B5481
:10017000335D005B54325D005B54315D004D503A9D
:10018000200050533A200048503A20004558503A39
:1001900020004C563A2020005B54335D005B543203
:1001A0005D005B54315D004D5020005053200048ED
:1001B0005020004D50005053004850005343414CD4
:1001C000453A20005465616D20736C6F74200043C4
:1001D00068616E676520746F203F003F3F3F004DB0
:1001E0005020003F3F3F00505320003F3F3F00481A
:1001F0005020003F3F005343414C453A20002B2BF9
:100200002B2B002B2B2B002B2B002B00526172650C
:100210002044726F70202121005B415D207965735D
:10022000205B425D206E6F005265746972653F000D
:1002300054696D65206F757421005B415D2079659F
:1002400073205B425D206E6F004E65787420617292
:1002500065613F00627566662100656E6368616E68
:100260007421007265636F7665727921006865613B
:100270006C21006D697469676174696F6E21007328
:100280006869656C64210064616D61676521006166
:10029000747461636B2100627566662100656E632C
:1002A00068616E7421007265636F766572792100F2
:1002B0006865616C21006D697469676174696F6E4E
:1002C0002100736869656C64210064616D61676514
:1002D000210061747461636B210000000000003E26
:1002E0005B4F5B3E3E6B4F6B3E1C3E7C3E1C183CA6
:1002F0007E3C181C577D571C1C5E7F5E1C00183C02
:100300001800FFE7C3E7FF0018241800FFE7DBE74A
:10031000FF30483A060E2629792926407F05050731
:10032000407F05253F5A3CE73C5A7F3E1C1C08088D
:100330001C1C3E7F14227F22145F5F005F5F060952
:100340007F017F006689956A606060606094A2FFAB
:10035000A29408047E040810207E201008082A1C9D
:1003600008081C2A08081E101010100C1E0C1E0C69
:1003700030383E3830060E3E0E0600000000000009
:10038000005F00000007000700147F147F14242A78
:100390007F2A12231308646236495620500008074A
:1003A0000300001C2241000041221C002A1C7F1C6B
:1003B0002A08083E0808008070300008080808086D
:1003C000000060600020100804023E5149453E00D4
:1003D000427F400072494949462141494D33181432
:1003E000127F1027454545393C4A49493141211181
:1003F00009073649494936464949291E0000140073
:100400000000403400000008142241141414141495
:10041000004122140802015909063E415D594E7CF3
:100420001211127C7F494949363E414141227F41A8
:1004300041413E7F494949417F090909013E414106
:1004400051737F0808087F00417F41002040413FF1
:10045000017F081422417F404040407F021C027F00
:100460007F0408107F3E4141413E7F090909063E55
:100470004151215E7F091929462649494932030124
:100480007F01033F4040403F1F2040201F3F403836
:10049000403F631408146303047804036159494D11
:1004A00043007F4141410204081020004141417F47
:1004B00004020102044040404040000307080020BD
:1004C000545478407F2844443838444444283844BD
:1004D00044287F385454541800087E090218A4A4F4
:1004E0009C787F0804047800447D40002040403D13
:1004F000007F1028440000417F40007C047804788D
:100500007C080404783844444438FC18242418181F
:10051000242418FC7C08040408485454542404047B
:100520003F44243C4040207C1C2040201C3C403068
:10053000403C44281028444C9090907C4464544C97
:1005400044000836410000007700000041360800F2
:1005500002010204023C2623263C1EA1A161123A9C
:100560004040207A385454555921555579412154E9
:10057000547841215554784020545579400C1E52EE
:100580007212395555555939545454593955545492
:10059000580000457C410002457D420001457C40F9
:1005A000F0292429F0F0282528F07C545545002016
:1005B00054547C547C0A097F4932494949323248B3
:1005C000484832324A4848303A4141217A3A42401A
:1005D0002078009DA0A07D39444444393D404040EE
:1005E0003D3C24FF2424487E4943662B2FFC2F2BBF
:1005F000FF0929F620C0887E090320545479410060
:1006000000447D413048484A32384040227A007ADE
:100610000A0A727D0D19317D2629292F28262929BC
:10062000292630484D4020380808080808080808DE
:10063000382F10C8ACBA2F102834FA00007B000005
:1006400008142A142222142A14089500220095AABC
:10065000005500AAAA55AA55AA000000FF001010D4
:1006600010FF00141414FF001010FF00FF1010F012
:1006700010F0141414FC001414F700FF0000FF0025
:10068000FF1414F404FC141417101F10101F101F73
:100690001414141F00101010F0000000001F1010A0
:1006A00010101F10101010F010000000FF1010109C
:1006B000101010101010FF10000000FF140000FFB9
:1006C00000FF00001F10170000FC04F414141710A2
:1006D000171414F404F40000FF00F7141414141495
:1006E0001414F700F7141414171410101F101F140B
:1006F0001414F4141010F010F000001F101F00006C
:10070000001F14000000FC140000F010F01010FF97
:1007100010FF141414FF141010101F00000000F03C
:1007200010FFFFFFFFFFF0F0F0F0F0FFFFFF000011
:10073000000000FFFF0F0F0F0F0F38444438447CB8
:100740002A2A3E147E02020606027E027E026355BB
:100750004941633844443C04407E201E2006027E0A
:10076000020299A5E7A5991C2A492A1C4C7201721C
:100770004C304A4D4D303048784830BC625A463D86
:100780003E494949007E0101017E2A2A2A2A2A443B
:10079000445F444440514A444040444A5140000070
:1007A000FF0103E080FF000008086B6B083612367B
:1007B0002436060F090F060000181800000010105C
:1007C000003040FF0101001F01011E00191D17121A
:1007D000003C3C3C3C0000000000F0F89C8E87830D
:1007E000878E9CF8F00000FEFF0303030303070E4F
:1007F000FCF80000FEFF0303030303070EFCF800F0
:1008000000FFFF00000000000000FFFF0000FEFFEF
:100810008383838383C7EE7C380000F8FC0E0703D4
:100820000303070EFCF800003F7FE0C08080C0E0BB
:100830007F3FFFFF01010101010101FFFF0000FFF8
:10084000FF0C0C0C0C1C3E77E3C100007FFFC0C006
:10085000C0C0C0E0703F1F00001F3F70E0C0C0C0BC
:10086000E0703F1F00007FFFC1C1C1C1C1E3773EFF
:100870001C00001F3F70E0C0C0C0E0703F1F0000C0
:1008800000000001FFFF01000000D5F08D14A1C899
:1008900081CFD9F1AF20003F3F3F004D503A2000BB
:1008A0003F3F3F0050533A20003F3F3F0048503AFF
:1008B00020003F3F3F004558503A20003F3F004C4A
:1008C000563A2020003F3F3F3F3F004172656100A4
:1008D0006D6F766500336E64006D6F766500326E05
:1008E00064006D6F766500317374006669726D2106
:1008F000005374616E64004C76004573742E007270
:100900006F73652100456E656D7900576F6E21002C
:100910002F0048503A2000746F6765746865722E26
:100920000043616C6D2074696D65004172656120E2
:1009300000426F6F6B206361727420746F3F000818
:100940000B00020202000009040000010202000084
:1009500005240010010524010101042402060524D8
:100960000600010705810310004009040100020A86
:100970000000000705020240000007058302400056
:10098000000403090412010002EF02014041233672
:100990008000010102030141726475696E6F204C91
:1009A0004C430041726475626F7900000325112485
:1009B0001FBECFEFDAE0DEBFCDBF12E0A0E0B1E0B6
:1009C000E8E5F2E702C005900D92A430B107D9F72F
:1009D00027E0A4E0B2E001C01D92AA30B207E1F71F
:1009E00014E0C7EDD4E004C02197FE010E941D3938
:1009F000C63DD107C9F70E9420250C942A390C94D2
:100A00000000EDE5F6E0A7E5B0E060E070E080E032
:100A10000E948E059D01AF0160E00E9420058217B3
:100A2000930751F4D901FA0160E00E9425058193F2
:100A30001197D9F761E0F1CF0E942B05862F089519
:100A40000E942505982F0C9425050DB407FEFDCFB7
:100A50008EB51EBC08950DB407FEFDCF8EB5599A14
:100A6000089527E530E0EDE5F6E0A0E0B0E0BD0157
:100A700080E00E948E050E947D05BD011296A20FA6
:100A8000B31F8217930799F38F5F9F4F21F4AF5FD6
:100A9000BF40DB0178F00E943F0940E050914C06D6
:100AA00060914D0680E20E948205599A0E94ED07EE
:100AB000A0E0B0E07CEF0E943F094A2F50914C0625
:100AC0005B0F60914D06611D82E00E948205832FBD
:100AD00071FD822F70FD81910E949A05759518F421
:100AE0002150304019F01196AA2389F7599A0E9493
:100AF000ED0721153105F9F608950E942505982F77
:100B00000C942B0559980E949A05862F0E949A05ED
:100B1000852F0E949A05842F0C949A05462F509198
:100B20004C06570F60914D06681F83E00E948205B6
:100B30001EBC08958EBD00008EB50DB407FEFCCF1F
:100B40000895ECE4F2E0A0E0B8E000800EBC811172
:100B5000012C1197A0FDFDCF0192B9F70DB40895B6
:100B6000E1E0F0E00E94C505319728F068517C4F24
:100B70008F4F9F4FF9CFAB01FC010E94C505641751
:100B800075078E079F07C8F30895A7E0B2E02FB757
:100B9000F8947D918D919C9166B52FBFA89B05C05F
:100BA0006F3F18F47F5F8F4F9F4F22E0660F771FD4
:100BB000881F991F2A95D1F70895FC0180914B0257
:100BC000882311F13FB7F89482E08093E9002091E7
:100BD000F200822F90E01816190614F481E090E0DC
:100BE000882339F0289844E640934A024091F10066
:100BF0004083222339F02091F200211103C02BE61B
:100C00002093E8003FBF08958FEF9FEF08952FB71F
:100C1000F89483E08093E9009091E800892F807236
:100C200095FF04C09091F20080E4891B2FBF0895C6
:100C30008091420281110DC082E080933E0284E0E7
:100C400080933F02109241021092400281E0809313
:100C500042028EE392E008958F929F92AF92BF92EC
:100C6000CF92DF92EF92FF920F931F93CF93DF9378
:100C70006C017B018A0180912D01882309F458C001
:100C800080914B02882309F453C080913D0280FF7C
:100C900005C08091E00082608093E000E801B12C03
:100CA0008AEFA82E93E0892E2AE3922E209711F442
:100CB000BB20B9F10E940706811106C0AA94AA20A0
:100CC000B9F10E94B005F2CF8C171D0611F00CF09F
:100CD0008C2F9FB7F8948092E9002091E80025FDC1
:100CE00002C09FBFE3CF282F30E0C21BD30BF70118
:100CF000815020F041914093F100FACFE20EF31EB3
:100D0000BB2021F09092E800B12CEBCF8091E8005D
:100D100085FDE7CF9092E800BB24B394209709F3B8
:100D2000F3CF5D9884E680933C02101611063CF0E8
:100D300081E090E0F6019383828310E000E0C80137
:100D4000DF91CF911F910F91FF90EF90DF90CF90A7
:100D5000BF90AF909F908F900895CF93DF931F9295
:100D6000CDB7DEB76983DC01ED91FC910280F381A0
:100D7000E02D41E050E0BE016F5F7F4F09950F907D
:100D8000DF91CF91089583E08093E9008091F20094
:100D9000882319F08AE38093E80008950E940706EB
:100DA00090E00895CF93DF931F92CDB7DEB7FC019B
:100DB0008485958597FD08C02FEF3FEF3587248701
:100DC0000F90DF91CF910895CE0101960E94DD052D
:100DD000019719F4898190E0F3CF8FEF9FEFF0CF67
:100DE0000F931F93CF93DF931F92CDB7DEB78C0184
:100DF000FC018485958597FF0BC0CE0101960E946A
:100E0000DD05019771F4898190E0F8019587848769
:100E1000F801848595850F90DF91CF911F910F91F7
:100E200008958FEF9FEFF1CFFC018485958597FDA5
:100E30000BC09FB7F89482E08093E9008091F200A4
:100E40009FBF90E0019608959FB7F89482E0809349
:100E5000E9008091F2009FBF90E008954091380230
:100E600050913902209136023091370242175307D0
:100E7000B4F49091E8009570E1F39091E80092FD50
:100E800019C08093F1008091380290913902019647
:100E90008F739927892B19F48EEF8093E800809146
:100EA000380290913902019690933902809338026A
:100EB00081E0089580E00895DF92EF92FF920F9312
:100EC0001F93CF93DF93D82E8A01EB017B01E40EB1
:100ED000F51ECE15DF0559F0D7FE12C0FE01849134
:100EE0000E942E0721968111F4CF0FEF1FEFC8014A
:100EF000DF91CF911F910F91FF90EF90DF900895B8
:100F00008881EECF0F931F93CF93DF931F92CDB7BE
:100F1000DEB782E0898342E450E06FE379E080E865
:100F20000E945C070E941806DC0112960D911C912C
:100F30000115110589F0D801ED91FC910280F38132
:100F4000E02DBE016F5F7F4FC801099597FD04C07A
:100F5000F80100851185ECCF89810F90DF91CF9149
:100F60001F910F910895615030F02091F100FC0124
:100F700020830196F8CF289884E680934A0208954A
:100F8000AF92BF92CF92DF92EF92FF920F931F9397
:100F9000CF93DF936C017B018B01040F151FEB01D5
:100FA0005E01AE18BF08C017D10759F06991D6018C
:100FB000ED91FC910190F081E02DC6010995892BFE
:100FC00079F7C501DF91CF911F910F91FF90EF90BD
:100FD000DF90CF90BF90AF900895599885E00E9420
:100FE0009A0580E00E949A0580FDFBCF599A0895EA
:100FF000462F50910B02570F60910C02681F83E03F
:101000000E9482051EBC08953F924F925F926F929C
:101010007F928F929F92AF92BF92CF92DF92EF9288
:10102000FF920F931F93CF93DF935C016B01390104
:10103000842E302E9E2C842FB9010E94F8070E9426
:101040002005482EC82FD92F0E947D05FC019E0146
:101050002A0D3B1D121613060CF0F0C040E8A41632
:10106000B1040CF0EBC08C0D9D1D181619060CF088
:10107000E5C040E4C416D1040CF0E0C0B7FE0BC0DC
:10108000EE24FF24EA18FB084E18203831055CF0E6
:1010900050E8452E08C0213831051CF020E8422ECA
:1010A0004A18F12CE12CD7FEDBC0002711270C19C0
:1010B0001D09087FCF01801B910B5E2E501A8134D1
:1010C000910534F08C2D8195877040E4542E580E94
:1010D000159507951595079515950795CF010796D1
:1010E000969587959695879596958795389E9001C4
:1010F000399E300D1124200F311F40E0BE010D2E0E
:10110000000C880B0E94DF38A82FCB018E0D9F1D8D
:10111000A11DF7FCAA95992029F0880F991FAA1FF5
:10112000CC0FDD1F24E0620E711C811C680E791E3D
:101130008A1EC60123E0959587952A95E1F7080F49
:1011400031E0C1FC34E0C0FC330FC2FC329540E812
:101150000403D0011124AA0DBB1DAE0DBF1DA45B5D
:10116000BD4F252D599883E08EBD80910B02909143
:101170000C02870D981D0DB407FEFDCF9EBD0DB46A
:1011800007FEFDCF8EBD0DB407FEFDCF6EBC6C0E0D
:101190007D1E811C0DB407FEFDCF1EBC990C0730CF
:1011A00014F4089430FD8894979462E021FD68E07F
:1011B00022FD629520FF66956A9511F028300CF0AB
:1011C0006FEF942D0EB41EBC93FC0626862F90FC68
:1011D000802D92FC0024039EA00194FA36F4C89559
:1011E000C89511240EB41EBC90FC082E039E00303E
:1011F00034F08C9191FE4827402148274C93A05809
:10120000BF4F97FE06C08C9191FE58275121582759
:101210005C93112495FCA15895FEAF57B1099A959E
:1012200089F6842D95FE81958058A80FB11D285010
:1012300003950DB4599A12160CF494CFDF91CF9107
:101240001F910F91FF90EF90DF90CF90BF90AF90E4
:101250009F908F907F906F905F904F903F900895F8
:101260005E2E813491051CF080E4582E5C1810E04D
:1012700000E034CF59980E949A05599A089586E063
:101280000C943A092D9A0895BC0190E080E0AB01DE
:10129000FC010E94C50541505109E109F10928F0FE
:1012A00068517C4F8F4F9F4FF6CFAB01FC010E94DE
:1012B000C505641775078E079F07C8F308958FB19A
:1012C0008095807F669B88601C9B8460089520E1E8
:1012D00091E061FD94E060FD990F62FD9295687F59
:1012E000269FD0011124A80FA45BBD4F8C9140FF15
:1012F00003C0892B8C93089590958923FBCF5F922F
:101300006F927F928F929F92AF92BF92CF92DF9215
:10131000EF92FF920F931F93CF93DF936D3089F07D
:10132000C0902B02D0902C026A30E9F410922E0269
:1013300010922D0288E0C80ED11CD0922C02C092CF
:101340002B0281E090E0DF91CF911F910F91FF90F0
:10135000EF90DF90CF90BF90AF909F908F907F9055
:101360006F905F90089560902A025090180100914C
:101370002D0210912E02E5E06E9FE0011124C6526D
:10138000DD4F5801F12CF5E0E12CFF1629F0CE01DC
:101390000196FE01E490EC01460188E0782EE0FC25
:1013A00018C0462D651016C0E6947A94EFEF8E1A99
:1013B0009E0A7110F4CFF394FFEFAF1ABF0A86E0D4
:1013C000F812E1CF0A5F1F4F10932E0200932D02F7
:1013D000B8CF452DF0E8AF16B10430F780E4881699
:1013E000910410F7B401C5010E946709DDCF0F9386
:1013F0001F93CF93DF938C01D0E0C0E0F801EC0F96
:10140000FD1F6491662341F086E097E00E947F090A
:10141000892B11F02196F2CFCE01DF91CF911F9150
:101420000F910895CF93C82F0E945F09982F9C2396
:1014300081E09C1380E0CF910895ECE4F2E081110B
:101440008FEF002481938193819381930394D1F74B
:1014500008958F929F92AF92BF92CF92DF92EF92B8
:10146000FF920F93CF93DF934B01EC015C01A40E2D
:10147000B11C7B01E20EF11CCA15DB05CCF4640142
:10148000C70121E4E216F10414F080E490E0C816EC
:10149000D90664F4C038D1052CF4402FB601CE0132
:1014A0000E9467098FEFC81AD80AEACF2196E4CFC5
:1014B000DF91CF910F91FF90EF90DF90CF90BF9091
:1014C000AF909F908F9008959B01880F991FFC010A
:1014D000EA5AFE4F8081918160E177E20E94F538FF
:1014E000232B09F06DC06330C9F52091540630916B
:1014F00055068091560690915706280F391F809106
:101500001D0190911E01A0911F01B0912001820F39
:10151000931FA11DB11D80931D0190931E01A093E7
:101520001F01B0932001309355062093540640913B
:10153000190150911A0160911B0170911C0148170B
:1015400059076A077B070CF0A2C040931D01509316
:101550001E0160931F01709320010895613009F00E
:1015600096C080914E0690914F06209119023091BD
:101570001A022817390708F5409156065091570668
:10158000840F951F821B930B4091140150911501FC
:101590006091160170911701481B590B610971097F
:1015A0004093140150931501609316017093170135
:1015B00090934F0680934E06089581E090E0E4CF2B
:1015C0006330C1F520911D0230911E0280911F02EF
:1015D00090912002280F391F8091140190911501DC
:1015E000A0911601B0911701820F931FA11DB11D8B
:1015F0008093140190931501A0931601B0931701E5
:1016000030931E0220931D0240910D0150910E0156
:1016100060910F0170911001481759076A077B0705
:10162000B4F5409314015093150160931601709323
:1016300017010895613059F58091170290911802B1
:1016400020915006309151062817390708F540912E
:101650001F0250912002840F951F821B930B409113
:101660001D0150911E0160911F0170912001481BC6
:10167000590B6109710940931D0150931E0160933C
:101680001F01709320019093180280931702089510
:1016900081E090E0E4CF90913302409114015091A9
:1016A0001501609116017091170182E0141615065C
:1016B0001606170624F481E0953108F480E0409185
:1016C0001D0150911E0160911F017091200114169F
:1016D0001506160617060CF083E00895EF920F9397
:1016E000CF93DF93EC0101E020E240E870E060E09E
:1016F00090E080E00E94290AE12C0EE028E839E021
:1017000040E060E270E0CD2BE9F490E080E00E94E0
:10171000040802E02CE031E140E060E270E080E2A9
:1017200090E00E94040807E020E030E040E070E034
:1017300060E090E080E00E940408DF91CF910F917B
:10174000EF90089580E690E00E94040802E02CE00B
:1017500031E140E060E270E090E080E00E94040847
:1017600009E020E030E040E070E060E080E690E0FA
:10177000E2CFCF93DF93EB01880F991FFC01EA5A68
:10178000FE4F8081918168EE73E00E94F538CB01B5
:101790006AE070E00E94F538CD2B21F5813091058B
:1017A00079F46091190170911A0180911B01909157
:1017B0001C012BE030E040E050E00E947C3807C084
:1017C0008230910541F42091270230912802C9010D
:1017D000DF91CF9108950397D1F7209125023091A1
:1017E0002602F5CF8130910549F460910D01709189
:1017F0000E0180910F0190911001DBCF8230910595
:1018000029F42091230230912402E1CF0397F9F6C5
:101810002091210230912202DACF9C01FC01EE0FCF
:10182000FF1FEA5AFE4F8081918160E177E20E94BA
:10183000F5386130A9F461E070E0C9010E94B90B8C
:101840002FE0AC01249FC001259F900D11246AE078
:1018500070E00E94F53870931802609317020895A3
:10186000623051F461E070E0C9010E94B90B9093BD
:101870001A02809319020895633051F461E070E018
:10188000C9010E94B90B90931E0280931D02089516
:10189000643049F461E070E0C9010E94B90B909393
:1018A000200280931F020895CF93DF93E62FA82F85
:1018B000B0E0AA0FBB1FAD5CBE4F8D919C91C8EEEE
:1018C000D3E0BE010E94F538CB012AE030E0B90137
:1018D0000E94F53881309105A1F4F0E0EE0FFF1F72
:1018E000ED5CFE4F80819181BE010E94F538CB01F5
:1018F000B9010E94F5380297B9F48BE0DF91CF91DE
:1019000008958230910591F4F0E0EE0FFF1FED5C39
:10191000FE4F80819181BE010E94F538CB01B90153
:101920000E94F538039749F38AE0E8CF0397E1F77F
:10193000F0E0EE0FFF1FED5CFE4F80819181BE0154
:101940000E94F538CB01B9010E94F538019761F783
:10195000D4CFEF920F93CF93DF93FC01EB01440FB1
:10196000551F232B09F54D5C5E4FDA018D919C913B
:1019700068EE73E00E94F538CB016AE070E00E94E7
:10198000F538E12C00E08130910539F1E12C01E0DE
:101990008230910511F1E12C02E00397F1F0DF9123
:1019A000CF910F91EF9008954A5A5E4FDA018D91D1
:1019B0009C9160E177E20E94F538E12C03E0613010
:1019C00061F0E12C04E0623041F0E12C05E063308D
:1019D00021F0643021F7E12C06E028E134E640E014
:1019E000BE01CF010E940408DACF8130910521F4B5
:1019F0008AE092E00C94F7098230910519F487E0AF
:101A000092E0F8CF8330910519F483E092E0F2CFB1
:101A1000049719F48EEF91E0EDCF08950F931F9383
:101A2000CF93DF938C01EB0180E40E94120A88239C
:101A300079F080915B0690915C0663E070E00E9413
:101A4000F538892B29F480912F028F5F80932F0224
:101A500080E20E94120A882379F080915B069091BF
:101A60005C0663E070E00E94F538892B29F48091D0
:101A70002F02815080932F0280912F02082E000C9C
:101A8000990BC817D90714F400932F0280912F02E5
:101A9000082E000C990B8017910714F4C0932F02A5
:101AA000DF91CF911F910F91089580E40E94120A57
:101AB000882379F080915B0690915C0663E070E08A
:101AC0000E94F538892B29F4809104028F5F80935E
:101AD000040280E20E94120A882379F080915B065A
:101AE00090915C0663E070E00E94F538892B29F440
:101AF000809104028150809304028091040283301B
:101B000014F0109204028091040287FF03C082E067
:101B1000809304020895CF93DF93EC0180E40E9448
:101B2000120A882379F080915B0690915C0663E04D
:101B300070E00E94F538892B29F4809131028F5F83
:101B40008093310280E20E94120A882379F080910A
:101B50005B0690915C0663E070E00E94F538892B8B
:101B600029F48091310281508093310280913102B9
:101B7000082E000C990BC817D90714F410923102E3
:101B80008091310287FDC0933102DF91CF9108959A
:101B9000AF92BF92CF92DF92EF920F931F93CF93AA
:101BA000DF93EC015B0180915B0680FD09C08091B1
:101BB0000401909105010196909305018093040121
:101BC00080910401909105014F9731F481E090E0FC
:101BD000909305018093040181E00E941D0AE12C8D
:101BE00002E02CE031E140E060E270E080E290E071
:101BF0000E9404081092180181E080932A02C0908C
:101C00000401D0900501E12CAB2809F095C087E0D4
:101C1000C816D10429F0C6018D7F07E0419709F469
:101C200008E024E035E040E070E060E090E080E033
:101C30000E94040804E210E010932E0200932D028B
:101C400010932C0200932B0283E591E00E94F70988
:101C500010932E0200932D028EE290E090932C02BE
:101C600080932B0287E491E00E94F70980E1C81677
:101C7000D1045CF4E12C00E02CE031E140E070E0C4
:101C800060E080E290E00E940408C130D105D1F408
:101C9000E12C01E02CE031E140E070E060E080E226
:101CA00090E00E9404080DE028E839E040E060E29E
:101CB00070E090E080E00E940408269799F5E12CFE
:101CC00005E027C0C230D10561F4E12C00E024E03A
:101CD00035E040E070E060E080E490E00E940408BD
:101CE000E3CFE12C01E0C330D10551F0E12C02E05B
:101CF000C430D10529F0C530D105F9F6E12C03E057
:101D000024E035E040E070E060E080E490E00E9494
:101D1000040828E839E040E060E270E090E080E00C
:101D20000E940408DF91CF911F910F91EF90DF90F7
:101D3000CF90BF90AF90089507E028E839E040E0E9
:101D400070E060E090E080E00E94040884E290E0AF
:101D500090932E0280932D0290932C0280932B025D
:101D600088E391E081CFCF92DF92EF920F93CF93F0
:101D7000DF93EC016B01FA01EE0FFF1FEA5AFE4FF1
:101D80008081918160E177E20E94F538E12C03E0E7
:101D9000613061F0E12C04E0623041F0E12C05E0BB
:101DA000633021F0643049F4E12C06E020E030E0BB
:101DB00040E0B601CE010E940408DF91CF910F915F
:101DC000EF90DF90CF900895EF92FF920F931F93C3
:101DD000CF93DF939C01EB0100915B0610915C06B1
:101DE000C80167E070E00E94F538892B49F48091C2
:101DF000B4069091B50601969093B5068093B4060B
:101E00008091B4069091B506039724F01092B50620
:101E10001092B406E090B406F090B506F701EF54C6
:101E2000F94F408150E060E270E0C9010E94B30EBA
:101E300080E10E94120A882379F0C80163E070E013
:101E40000E94F538892B41F4C85AD94FE882809115
:101E50002E018F5F80932E01DF91CF911F910F9103
:101E6000FF90EF900895CF92DF92EF920F931F9320
:101E7000CF93DF9380913002E12C00E0882361F062
:101E8000E12C01E0813041F0E12C02E0823021F0D0
:101E9000833059F4E12C03E02CE83BE540E060E2BC
:101EA00070E090E080E00E940408C0912F02E12CD5
:101EB0000C2F28E837E340E070E060E090E080E03D
:101EC0000E9404080C2E000CDD0BAE0170E060E0F7
:101ED00080E290E00E94B30E81E08093180110929E
:101EE0002A0284E490E090932E0280932D028CE0ED
:101EF00090E090932C0280932B028CEB91E00E9457
:101F0000F709FE01EE0FFF1FEA5AFE4FC080D18095
:101F1000C60168EE73E00E94F538CB016AE070E01C
:101F20000E94F5388130910509F087C089EB91E076
:101F30000E94F709E12C02E02CE031E140E060E290
:101F400070E080E290E00E9404081092180181E0A5
:101F500080932A0284E690E090932E0280932D02D3
:101F600084E290E090932C0280932B028091B10642
:101F70008C171D0621F482EA91E00E94F7098091F6
:101F8000B2068C171D0621F48DE991E00E94F70935
:101F90008091B3068C171D0621F488E991E00E9418
:101FA000F709C4E2D0E0D0932E02C0932D02D09363
:101FB0002C02C0932B028FEA91E00E94F709C60120
:101FC00064E670E00E94F538CB010AE010E0B80149
:101FD0000E94F5380E94F50CD0932E02C0932D027A
:101FE000C0E3D0E0D0932C02C0932B028BEA91E0A7
:101FF0000E94F709C601B8010E94F5386C01CB01B7
:10200000B8010E94F5380E94F50C82E590E09093AB
:102010002E0280932D02D0932C02C0932B0287EACC
:1020200091E00E94F709C601DF91CF911F910F91B6
:10203000EF90DF90CF900C94F50C8230910519F45D
:1020400086EB91E075CF039709F074CF83EB91E0B5
:102050006FCFEF920F93CF93DF93EB01E12C00E072
:10206000009741F001E08130910521F002E00297F4
:1020700009F003E02CE83BE540E060E270E090E02E
:1020800080E00E940408C35AD94F89858130C9F481
:102090000E94330F88E00E94120A882369F0809121
:1020A0005B0690915C0663E070E00E94F538892B36
:1020B00019F48CE080933402DF91CF910F91EF906F
:1020C0000895E12C00E020E834E340E070E060E0B7
:1020D00090E080E00E94040820E834E340E070E0F3
:1020E00060E080E290E00E940408C1E0C093180123
:1020F00010922A0284E490E090932E0280932D02A5
:102100008CE090E090932C0280932B0286EF91E07C
:102110000E94F70983EF91E00E94F70902E02CE0AA
:1021200031E140E060E270E080E290E00E9404086B
:1021300010921801C0932A02C4E2D0E0D0932E027C
:10214000C0932D02D0932C02C0932B028FEE91E00E
:102150000E94F7098BEE91E00E94F709D0932E02BE
:10216000C0932D02C0E3D0E0D0932C02C0932B0289
:1021700087EE91E00E94F70983EE91E00E94F70953
:1021800082E590E090932E0280932D02D0932C0252
:10219000C0932B028FED91E00E94F7098BED91E047
:1021A000DF91CF910F91EF900C94F709CF93DF93CC
:1021B000EA0190932E0280932D0270932C0260937B
:1021C0002B0282E391E0209729F04130510589F4F8
:1021D0008DE291E00E94F709C530D10589F487E1CD
:1021E00091E00E94F70989ED90E0CA30D105A9F18C
:1021F0000EC04230510589F488E291E00E94F7094F
:10220000C630D10589F48BE091E00E94F7098BEC90
:1022100090E0CB30D10509F10EC04330510589F46F
:1022200084E291E00E94F709C730D105D1F481E042
:1022300091E00E94F7098BEB90E0CC30D10569F07A
:1022400017C04430510541F68EE191E00E94F70934
:1022500087EE90E0C930D10531F6DF91CF910C9433
:10226000F709C830D105A1F786EF90E00E94F70981
:102270002D9719F48CEA90E0F0CFDF91CF9108957B
:1022800081309105D1F020E935E982309105B9F02E
:1022900028E13CEA42E083309105A9F020EA32ECE3
:1022A00042E08430910591F020E838E685309105D0
:1022B00031F428E239ED42E00FC028E03FE742E088
:1022C00086309105E9F087309105F1F0883091056D
:1022D000F9F08930910501F18A30910501F18B30D7
:1022E000910501F18C30910501F10D9719F428EE5B
:1022F0003CE343E050E060E070E080E090E008956F
:1023000020EB35EE42E0EBCF28E332EF42E0EACFBC
:1023100020EC3EEF42E0E9CF28E43BE0EACF20EDBD
:1023200037E1E7CF28E534E2E4CF20EE30E3E1CF38
:10233000CF92DF92EF920F93CF93DF93EC016B017B
:10234000CA010E944011E12C03E0B601CE010E94B7
:102350000408DF91CF910F91EF90DF90CF90089517
:10236000CF92DF92EF920F93CF93DF93EC016B014B
:10237000CA010E944011E12C01E0B601CE010E9489
:102380000408DF91CF910F91EF90DF90CF900895E7
:1023900081309105D1F02CE831E882309105B9F017
:1023A00024E138E942E083309105A9F02CE93EEAC6
:1023B00042E08430910591F02CE734E585309105B9
:1023C00031F424E235EC42E00FC024E03BE642E089
:1023D00086309105E9F087309105F1F0883091055C
:1023E000F9F08930910501F18A30910501F18B30C6
:1023F000910501F18C30910501F10D9719F424EE4E
:1024000032E343E050E060E070E080E090E0089567
:102410002CEA3BED42E0EBCF24E338EE42E0EACF9A
:102420002CEB34EF42E0E9CF24E431E0EACF2CECAE
:102430003DE0E7CF24E53AE1E4CF2CED36E2E1CF11
:10244000CF92DF92EF920F93CF93DF93EC016B016A
:10245000CA012130310591F40E94C811522F80E148
:10246000E82E04E0252FB601CE010E940408DF917A
:10247000CF910F91EF90DF90CF9008950E9440117F
:10248000522FE12C02E0EECFCF92DF92EF920F932A
:10249000CF93DF93EC016B01CA012130310591F438
:1024A0000E94C811522F80E1E82E07E0252FB601C7
:1024B000CE010E940408DF91CF910F91EF90DF9041
:1024C000CF9008950E944011522FE12C04E0EECFEE
:1024D000CF92DF92EF920F931F93CF93DF93EC0194
:1024E0006B01CA0120915B0620FD0AC02091020108
:1024F000309103012F5F3F4F30930301209302017E
:1025000020910201309103012F31310534F021E097
:1025100030E03093030120930201009102011091F9
:1025200003010E94C81180E1E82E003111056CF40E
:1025300002E0B601CE010E940408DF91CF911F9105
:102540000F91EF90DF90CF90089503E0F2CFCF92FC
:10255000DF92EF92FF920F931F93CF93DF93EC01E3
:102560006B018A0180915B0690915C0663E070E0EC
:102570000E94F538892B49F4809100019091010166
:1025800001969093010180930001E0900001F0908A
:1025900001018FE1E816F10404F181E090E09093ED
:1025A0000101809300012130310551F5C8010E94DD
:1025B000C81160E1E62E00E0932F842F392F482FB9
:1025C000B601CE010E940408DF91CF911F910F91B7
:1025D000FF90EF90DF90CF9008952130310581F486
:1025E000C8010E94C811932F842F30E1E316F10433
:1025F000ECF230E1E32E01E0E1CFE12C01E0E0CFAD
:10260000E0900001F0900101C8010E94401180E1BA
:10261000E816F10494F7E12C00E0D2CFEF92FF929C
:102620000F931F93CF93DF93009709F041C0409120
:10263000AE0650E021E030E070E060E080E290E043
:102640000E9444124091AF0650E021E030E070E07B
:1026500060E080E490E00E9444124091B00650E0B7
:1026600021E030E070E060E080E690E00E944412FB
:102670004091AE0650E022E030E060E270E080E29F
:1026800090E00E9444124091AF0650E022E030E01A
:1026900060E270E080E490E00E9444124091B00655
:1026A00050E022E030E060E270E080E690E041C07F
:1026B0008130910509F045C0E0900601F12C21E040
:1026C00030E0A70170E060E080E490E00E944412F6
:1026D0000091070110E021E030E0A80170E060E027
:1026E00080E290E00E944412C0910801D0E021E015
:1026F00030E0AE0170E060E090E080E00E944412C3
:1027000022E030E0A70160E270E080E490E00E9407
:10271000441222E030E0A80160E270E080E290E044
:102720000E94441222E030E0AE0160E270E090E0EE
:1027300080E0DF91CF911F910F91FF90EF900C946B
:102740004412029721F500E020E240E660E270E0EA
:1027500090E080E00E94290AC0910601D0E021E0CB
:1027600030E0AE0170E060E081E190E00E94A712ED
:1027700022E030E0AE0160E270E080E290E0DF91C4
:10278000CF911F910F91FF90EF900C94A712409161
:10279000AE0650E022E030E070E060E080E290E0E1
:1027A0000E9444124091AF0650E022E030E070E019
:1027B00060E080E490E00E9444124091B00650E056
:1027C00022E030E070E060E070CFBF92CF92DF9205
:1027D000EF92FF920F931F93CF93DF939C01909101
:1027E0001402913818F49F5F90931402B090140271
:1027F000CB2DD0E02115310509F05EC04091AE0629
:1028000050E070E060E080EA90E08C1B9D0B0E943D
:1028100068124091AF0650E070E060E080EC90E01C
:102820008C1B9D0B0E9468124091B00650E070E036
:1028300060E080EE90E08C1B9D0B0E94681240913E
:10284000AE0650E022E030E060E270E080E290E02E
:102850000E94A7124091AF0650E022E030E060E213
:1028600070E080E490E00E94A7124091B00650E032
:1028700022E030E060E270E080E690E00E94A71283
:10288000B7FE10C01092140280912E018C3019F402
:102890008DE080932E0180912E018E3019F48FE00F
:1028A00080932E01DF91CF911F910F91FF90EF90B8
:1028B000DF90CF90BF90089521303105D9F5C090B9
:1028C0000601D12CA60170E060E0CE018054910990
:1028D0000E946812E0900701F12CA70170E060E00F
:1028E000CE01805691090E9468120091080110E003
:1028F000A80170E060E0CE01805891090E94681242
:1029000022E030E0A60160E270E080E490E00E9406
:10291000A71222E030E0A70160E270E080E290E0E0
:102920000E94A71222E030E0A80160E270E090E08F
:1029300080E0A4CF00E020E240E660E270E090E0BA
:1029400080E00E94290A0091060110E021E030E0B9
:10295000A80170E060E0CE018F5691090E94A71295
:1029600022E030E0A80160E270E080E290E086CFF3
:102970008F929F92AF92BF92CF92DF92EF92FF928F
:102980000F931F93CF93DF9381E00E941D0AE12CE8
:1029900000E024E933E640E070E060E090E080E0B1
:1029A0000E9404088EEA882E86E0982EF401408169
:1029B00050E030E020E066E070E083E090E00E94CC
:1029C000A90C9FEAA92E96E0B92EF501408150E0AE
:1029D00030E020E066E070E08CE090E00E94A90C1E
:1029E00020EBE22E26E0F22EF701408150E030E0AD
:1029F00020E066E070E085E190E00E94A90C01EB28
:102A000016E0F801408150E021E030E062E170E042
:102A100083E090E00E94A90C32EBC32E36E0D32E67
:102A2000F601408150E021E030E062E170E08CE0AE
:102A300090E00E94A90CC3EBD6E0488150E021E071
:102A400030E062E170E085E190E00E94A90CF401C1
:102A5000408150E022E030E070E060E080E290E011
:102A60000E94A712F501408150E022E030E070E0C2
:102A700060E080E490E00E94A712F701408150E0FE
:102A800022E030E070E060E080E690E00E94A71273
:102A9000E12CF801008128E837E340E060E270E0D3
:102AA00080E290E00E940408F601008128E837E304
:102AB00040E060E270E080E490E00E940408088159
:102AC00028E837E340E060E270E080E690E00E94B2
:102AD000040802E028E839E040E060E270E090E0BD
:102AE00080E00E940408DF91CF911F910F91FF9029
:102AF000EF90DF90CF90BF90AF909F908F90089510
:102B0000089590E080E00895EF920F93CF93DF93C4
:102B1000EC01CB010E94C81180E1E82E05E070E0D5
:102B200060E0CE010E940408DF91CF910F91EF90F9
:102B30000895CF92DF92EF920F93CF93DF93EC0142
:102B400081E00E941D0A1092180181E080932A0200
:102B500084E2C82ED12CD0922E02C0922D02D092A7
:102B60002C02C0922B02CE018B7F019709F06CC022
:102B7000E12C0BE028E839E040E060E270E090E012
:102B800080E00E9404084091AE0650E021E030E071
:102B900070E060E080E290E00E9420124091AF0679
:102BA00050E021E030E070E060E080E490E00E94DE
:102BB00020124091B00650E021E030E070E060E08B
:102BC00080E690E00E9420124091AE0650E022E0A4
:102BD00030E060E270E080E290E00E9420124091DC
:102BE000AF0650E022E030E060E270E080E490E088
:102BF0000E9420124091B00650E022E030E060E2F6
:102C000070E080E690E00E942012C530D105E1F42A
:102C100002E02CE031E140E060E270E080E290E030
:102C20000E94040889E492E00E94F709D0922E02E3
:102C3000C0922D0280E390E090932C0280932B02AF
:102C40008AE392E00E94F709CE010297029720F0F2
:102C5000C630D10509F07DC0E12C0CE028E839E050
:102C600040E060E270E090E080E00E940408609143
:102C7000AE0670E080E290E00E9484156091AF069D
:102C800070E080E490E00E9484156091B00670E0EE
:102C900080E690E00E9484154091AE0650E060E22C
:102CA00070E080E290E00E9498114091AF0650E001
:102CB00060E270E080E490E00E9498114091B006DC
:102CC00050E060E270E080E690E00E949811C3302E
:102CD000D105A1F402E02CE031E140E060E270E0D7
:102CE00080E290E00E94040880E392E0DF91CF91BF
:102CF0000F91EF90DF90CF900C94F709C630D1057B
:102D000041F5E12C09E028E839E040E060E270E0BC
:102D100090E080E00E94040802E02CE031E140E015
:102D200060E270E080E290E00E94040888E292E0B5
:102D30000E94F70984E290E090932E0280932D0286
:102D400080E390E090932C0280932B0289E192E043
:102D5000CDCF249721F5E12C02E02CE031E140E0D9
:102D600060E270E080E290E00E94040808E020E069
:102D700030E040E060E270E090E080E00E94040813
:102D80008CE092E00E94F7090091130128E837E3F4
:102D900040E070E060E080E390E00E940408DF9192
:102DA000CF910F91EF90DF90CF9008959C01FC019F
:102DB000EE0FFF1FEA5AFE4F8081918160E177E2BA
:102DC0000E94F5386130A9F470E060E0C9010E940A
:102DD000B90B2FE0AC01249FC001259F900D112459
:102DE0006AE070E00E94F53870934F0660934E06DB
:102DF0000895623051F470E060E0C9010E94B90B9F
:102E000090935106809350060895633051F470E01A
:102E100060E0C9010E94B90B909355068093540657
:102E20000895643049F470E060E0C9010E94B90B74
:102E3000909357068093560608958F929F92AF9273
:102E4000BF920F931F93CF93DF93CDB7DEB7A197B8
:102E50000FB6F894DEBF0FBECDBF19A2423008F402
:102E60004AE08E010F5D1F4F842E912CB12CA12CB6
:102E7000A50194010E94AE38E62FB901CA01EA30DB
:102E800044F5E05DD801EE938D01232B242B252BF7
:102E900079F790E080E0109769F0FD010190002043
:102EA000E9F73197AF014A1B5B0BBD0186E097E064
:102EB0000E94C007A1960FB6F894DEBF0FBECDBF2B
:102EC000DF91CF911F910F91BF90AF909F908F9006
:102ED0000895E95CD7CFCF92DF92EF92FF92CF9324
:102EE000DF9397FF1BC06B017C016DE286E097E0EA
:102EF0000E947F09EC0166277727CB016C197D09B9
:102F00008E099F094AE00E941D178C0F9D1FDF91BB
:102F1000CF91FF90EF90DF90CF9008954AE0DF913E
:102F2000CF91FF90EF90DF90CF900C941D17BC01D4
:102F3000990F880B990B0C946B17BC0190E080E003
:102F40004AE00C941D17682F70E090E080E04AE0A2
:102F50000C941D178F929F92AF92BF92CF92DF92E7
:102F6000EF920F931F93CF93DF93EC016B0180E2FD
:102F700090E090932E0280932D02B0E3AB2EB12C03
:102F8000B0922C02A0922B02809114020E94A317EF
:102F900089E180930901109114021F5F10931402BC
:102FA00081E00E941D0A1092180181E080932A029C
:102FB000C6018D7FE12C02E02CE031E140E060E2CF
:102FC00070E0892B09F0FFC580E290E00E940408C0
:102FD000C35AD94FFE01EC5AFF4FE081F0E0EE0FEB
:102FE000FF1FEA5AFE4F8081918160E177E20E94E3
:102FF000F538613009F0E8C04E0181E5880E911C7A
:10300000D4014C9150E022E030E060E270E090E0CA
:1030100080E00E944412153E08F066C2F40140812F
:1030200050E064E270E084E290E00E94D61084E216
:1030300090E090932E0280932D028EE290E0909388
:103040002C0280932B0282ED92E00E94F7091091EE
:103050001402113578F4FE01EF5AFF4F408150E021
:1030600021E030E070E060E080E890E0811B9109B1
:103070000E94A7128FEA810F843080F4FE01EF5A7C
:10308000FF4F808190E00E94C811F0E1EF2E08E030
:1030900070E060E080E390E00E9404088BEA810F1A
:1030A000893080F4FE01EF5AFF4F808190E00E944A
:1030B000C811E0E1EE2E09E070E060E080E390E00E
:1030C0000E94040882EA810F87FD2DC0C114D1043B
:1030D00009F025C28091060190E00E94C811A12E3E
:1030E000B12C70E1E72E00E070E060E0C5018E5881
:1030F00091090E9404088091070190E00E94C81184
:1031000070E060E0C5018E5A91090E940408809128
:10311000080190E00E94C81170E060E0C5018E5C7B
:1031200091090E94040804E2010F023058F420E1E2
:10313000E22E2CE534EE40E070E060E090E080E0CC
:103140000E94040892E2B92EB10EBDE1BB15B8F1A0
:10315000C114D10409F0F7C18091060190E00E94EA
:10316000C81180E1E82E06E070E060E080E590E0C4
:103170000E9404088091070190E00E94C81170E04D
:1031800060E080E390E00E9404088091080190E0F4
:103190000E94C81170E060E080E190E00E940408A5
:1031A000F6E0FB1560F0B0E1EB2E0B2D2CE534EED4
:1031B00040E070E060E090E080E00E940408143E8F
:1031C00018F084EE80931402FE01EC5AFF4FE08168
:1031D000F0E0EE0FFF1FEA5AFE4F8081918160E11F
:1031E00077E20E94F538623009F06FC08E010F5A05
:1031F0001F4FD8014C9150E022E030E060E270E0D7
:1032000090E080E00E94441280911402833308F021
:10321000ACC1F801408150E064E270E084E290E0EB
:103220000E94D61084E290E090932E0280932D02AB
:103230008EE290E090932C0280932B0282EC92E03D
:103240000E94F70910911402FE01EF5AFF4F80818E
:1032500090E0143208F00DC421E030E0AC0170E0E1
:1032600060E080E390E00E94A712F0E1EF2E00E022
:1032700024E534E640E0812F8852990BBC0190E0B0
:1032800080E00E94040887ED810F8F3068F4E0E150
:10329000EE2E08ED010F24E534E640E070E060E03A
:1032A00090E080E00E940408173378F070E1E72E88
:1032B00000E024E534E640E070E060E090E080E08B
:1032C0000E94040887E380931402FE01EC5AFF4F2A
:1032D000E081F0E0EE0FFF1FEA5AFE4F80819181FE
:1032E00060E177E20E94F538633009F082C0109106
:1032F0001402FE01EF5AFF4F808190E00E94C81136
:1033000050E1E52E1A3008F0C3C308E070E060E039
:1033100080E390E00E940408163050F4012F24E668
:103320003CE241E070E060E090E080E00E94040850
:103330002AEFD22ED10E94E09D1568F090E1E92E8F
:103340000BEF010F24E63CE241E070E060E090E02A
:1033500080E00E94040885EF810F873008F022C1C9
:1033600080E1E82E0D2D24E63CE241E070E060E0D3
:1033700090E080E00E9404086E01A1E5CA0ED11C15
:10338000F601408150E022E030E060E270E090E041
:1033900080E00E942012E12C02E02CE031E140E0CC
:1033A00060E270E080E290E00E940408133308F0CD
:1033B00007C1D6014C9150E064E270E084E290E0F5
:1033C0000E94D61084E290E090932E0280932D020A
:1033D0008EE290E090932C0280932B0280EB92E09F
:1033E0000E94F70980911402883718F088E78093CB
:1033F0001402FE01EC5AFF4FE081F0E0EE0FFF1FD8
:10340000EA5AFE4F8081918160E177E20E94F538AF
:10341000643009F05DC082E38093090110911402C9
:10342000FE01EF5AFF4F808190E00E94C811A0E199
:10343000EA2E1B3008F032C308E070E060E080E361
:1034400090E00E940408F0E1EF2E012F24E73CEA0F
:1034500041E070E060E090E080E00E940408CF5A14
:10346000DF4F488150E022E030E060E270E090E021
:1034700080E00E942012E12C02E02CE031E140E0EB
:1034800060E270E080E290E00E940408153108F0EC
:10349000B4C0488150E064E270E084E290E00E94B1
:1034A000D61084E290E090932E0280932D028EE25B
:1034B00090E090932C0280932B028DE992E00E9481
:1034C000F70980911402853118F085E18093140288
:1034D000DF91CF911F910F91EF90DF90CF90BF9030
:1034E000AF909F908F90089504E210E010932E0209
:1034F00000932D0210932C0200932B0280914E0614
:1035000090914F060E949D1710932E0200932D025A
:10351000B0922C02A0922B028AEC92E096CDF2E0BF
:10352000CF16D10409F0FFCD8091060190E00E94F2
:10353000C81160E1E62E00E070E060E0A12FAD5C14
:10354000BB0BCD01EECDE2E0CE16D10409F028CEC2
:103550008091060190E00E94C81100E1E02E02E097
:1035600070E060E081E190E019CE04E210E0109399
:103570002E0200932D0210932C0200932B028091B7
:103580005006909151060E949D1710932E020093B1
:103590002D0280E390E090932C0280932B0286EB27
:1035A00092E04ECE123108F4E7CE62E370E0611B88
:1035B000710900E1E02E00E02CE63CE841E0D8CEC5
:1035C00004E210E010932E0200932D0210932C02BF
:1035D00000932B0280915406909155060E949D17EE
:1035E00010932E0200932D0280E390E090932C0222
:1035F00080932B0286EA92E0F3CEC4E2D0E0D0932F
:103600002E02C0932D02D0932C02C0932B028091E6
:103610005606909157060E949D17D0932E02C09394
:103620002D0280E390E090932C0280932B0287E997
:1036300092E045CFE3E0CE16D10409F0EEC2FE01E0
:10364000EA5FFE4F408150E060E270E080E690E08B
:103650000E949811E2C204E010E010932E02009341
:103660002D0284E290E090932C0280932B028091B3
:103670001702909118020E949D1710932E0200933A
:103680002D0280E390E090932C0280932B0287E838
:1036900092E0E6C2B3E0CB16D10409F0FBC2FE0112
:1036A000EA5FFE4F408150E021E030E070E060E0F2
:1036B000E12FE053FF0BCF01EBC283E0C816D1042A
:1036C00009F001C3FE01EA5FFE4F808190E00E9495
:1036D000C81170E1E72E03E070E060E080E290E066
:1036E000F0C2A3E0CA16D10409F006C3FE01EA5FE6
:1036F000FE4F808190E00E94C811522F20E1E22EFF
:1037000004E0252F70E060E080E290E0F3C2E3E0A7
:10371000CE16D10409F08CC3FE01EA5FFE4F408152
:1037200050E060E270E080E690E00E94981180C373
:1037300004E010E010932E0200932D0284E290E04A
:1037400090932C0280932B028091190290911A027F
:103750000E949D1710932E0200932D0280E390E0AB
:1037600090932C0280932B0283E792E07FC383E047
:10377000C816D10409F093C3FE01EA5FFE4F4081F1
:1037800050E021E030E070E060E090E080E085C350
:1037900093E0C916D10409F0A1C1FE01EA5FFE4F12
:1037A000808190E00E94C81160E1E62E04E070E0A4
:1037B00060E090E080E090C1E3E0CE16D10409F033
:1037C000F1C1FE01EA5FFE4F808190E00E94C811C6
:1037D000A0E1EA2E00E070E060E080E390E00E946B
:1037E00004081A3009F0E1C1FE01EA5FFE4F808152
:1037F00090E00E94C811522FF0E1EF2E04E0CAC100
:10380000F1E0CF16D10409F4BAC183E0C816D1049F
:1038100059F37AEF972E910E94E0991560F060E1DC
:10382000E62E092D28E63CE541E070E060E090E0FE
:1038300080E00E94040885EF810F873008F0B3C054
:1038400050E1E52E092D28E63CE541E070E060E01E
:1038500090E080E00E940408A1E0CA16D10409F0BB
:10386000B0C0FE01EA5FFE4F408150E022E030E050
:1038700060E270E090E080E00E942012E12C02E023
:103880002CE031E140E060E270E080E290E00E94F4
:103890000408133308F0A6C0FE01EA5FFE4F408122
:1038A00050E064E270E084E290E00E94D61084E28E
:1038B00090E090932E0280932D028EE290E0909300
:1038C0002C0280932B028DE692E00E94F7098091F2
:1038D0001402883718F088E780931402D501EC9120
:1038E000F0E0EE0FFF1FEA5AFE4F8081918160E108
:1038F00077E20E94F538643009F0EACD82E38093E4
:103900000901CA5FDE4FC881D0E0CE010E94C81114
:10391000522F20E1E22E00E0252F70E060E080E3EE
:1039200090E00E94040810911402153150F4012F08
:1039300024E73CEA41E070E060E090E080E00E9433
:103940000408B1E0CB16D10409F069C022E030E0F0
:10395000AE0160E270E090E080E00E942012E12C75
:1039600002E02CE031E140E060E270E080E290E0D3
:103970000E940408153108F05FC0AE0164E270E0F7
:1039800084E290E00E94D61084E290E090932E02B0
:1039900080932D028EE290E090932C0280932B0274
:1039A0008AE592E08CCD123108F456CF62E370E0E4
:1039B000611B710940E1E42E00E020E73CE941E0B1
:1039C00047CFB3E0CB16D10409F058CFFE01EA5F30
:1039D000FE4F408150E060E270E090E080E00E94A5
:1039E000B0114CCF04E210E010932E0200932D0290
:1039F00010932C0200932B0280911D0290911E02C5
:103A00000E949D1710932E0200932D0280E390E0F8
:103A100090932C0280932B0283E692E056CFE3E052
:103A2000CE16D10409F09BCFAE0160E270E090E0C9
:103A300080E00E94B01193CFC4E2D0E0D0932E0278
:103A4000C0932D02D0932C02C0932B0280911F02B1
:103A5000909120020E949D17D0932E02C0932D02B8
:103A600080E390E090932C0280932B0284E592E017
:103A700026CD0E94C81190E1E92E08E070E060E0D8
:103A800080E390E00E940408193208F0FCCBEDCBF3
:103A900009E070E060E080E390E048CC00E070E096
:103AA00060E080E390E00E940408153108F0D7CC74
:103AB000CACCF1E0CF16D10409F06ACEFE01EA5F6C
:103AC000FE4F808190E00E94C81170E1E72E08E06F
:103AD00070E060E080E390E00E940408193208F48E
:103AE000DEC187ED810F8F3068F420E1E22E08ED12
:103AF000010F28E534EA40E070E060E090E080E00B
:103B00000E940408173378F090E1E92E00E028E5E0
:103B100034EA40E070E060E090E080E00E94040859
:103B200087E380931402D501EC91F0E0EE0FFF1FC4
:103B3000EA5AFE4F8081918160E177E20E94F53878
:103B4000633009F0CBCE109114021B3008F058CE30
:103B5000B1E0CB16D10409F02FCEFE01EA5FFE4F93
:103B6000808190E00E94C81100E1E02E08E070E042
:103B700060E080E390E00E9404081A30B1F4FE0196
:103B8000EA5FFE4F808190E00E94C811522FB0E1A1
:103B9000EB2E09E0252F70E060E080E390E00E94CA
:103BA000040837CE1A3009F434CE163008F031CE7E
:103BB000E0E1EE2E012F28E63CE541E070E060E018
:103BC00090E080E0ECCF90E080E00E940408CE011D
:103BD0008F5E9E4F5C01DC01EC91F0E0EE0FFF1F69
:103BE000EA5AFE4F8081918160E177E20E94F538C8
:103BF000613009F0FBC0B1E0CB16D10409F01ACD59
:103C0000FE01EA5FFE4F408150E022E030E060E2DA
:103C100070E080E690E00E9444121092180181E06A
:103C200080932A0280911402853E08F014CDFE0193
:103C3000EA5FFE4F408150E064E270E084E090E093
:103C40000E94D61084E090E090932E0280932D0283
:103C50008EE290E090932C0280932B028FE892E00A
:103C60000E94F709109114021135A0F4F1E0CF166B
:103C7000D10409F00FCDFE01EA5FFE4F408150E014
:103C800021E030E070E060E0A12FA052BB0BCD013D
:103C90000E94A7128FEA810F8430A8F4F1E0CF16BA
:103CA000D10409F00ACDFE01EA5FFE4F808190E069
:103CB0000E94C811E0E1EE2E08E070E060E080E3D1
:103CC00090E00E9404088BEA810F8930A8F491E00B
:103CD000C916D10409F005CDFE01EA5FFE4F8081CF
:103CE00090E00E94C81160E1E62E09E070E060E01B
:103CF00080E390E00E94040882EA810F87FD2CC0D7
:103D00008091AE0690E00E94C811812E912C90E126
:103D1000E92E00E070E060E08EEE90E088199909ED
:103D20000E9404088091AF0690E00E94C81170E0E4
:103D300060E08EE091E0881999090E940408809162
:103D4000B00690E00E94C81170E060E08EE291E061
:103D5000881999090E94040804E2010F023058F4FE
:103D600080E1E82E20E638E041E070E060E090E09D
:103D700080E00E94040802E2902E910EBDE1B91588
:103D800080F18091AE0690E00E94C811B0E1EB2E68
:103D900006E070E060E080E190E00E94040880911D
:103DA000AF0690E00E94C81170E060E080E390E010
:103DB0000E9404088091B00690E00E94C81170E053
:103DC00060E080E590E00E940408091550F0092D9C
:103DD00020E638E041E070E060E090E080E00E94A2
:103DE0000408143E18F084EE80931402D501EC917F
:103DF000F0E0EE0FFF1FEA5AFE4F8081918160E1F3
:103E000077E20E94F538623009F08DCEB1E0CB1632
:103E1000D10409F07CCCFE01EA5FFE4F408150E006
:103E200022E030E060E270E080E690E00E94441220
:103E300080911402833308F07BCCFE01EA5FFE4FD1
:103E4000408150E064E270E084E090E00E94D6108F
:103E500084E090E090932E0280932D028EE290E019
:103E600090932C0280932B028FE792E00E94F70937
:103E700010911402143208F01CCEF1E0CF16D104D8
:103E800009F075CCFE01EA5FFE4F408150E021E071
:103E900030E070E060E080E390E00E94A71230E143
:103EA000E32E00E028E534EA40E0A12FA852BB0B46
:103EB000BD0190E080E00E94040813CEAF92BF9253
:103EC000CF92DF92EF920F931F93CF93DF93EC018A
:103ED0005B0101E020E440E270E060E090E080E01F
:103EE0000E94290A21E030E0AE0170E060E090E03D
:103EF00080E00E94A71222E030E0AE0160E270E0B4
:103F000090E080E00E94A712FE01EE0FFF1FED5C23
:103F1000FE4FC080D180C60168EE73E00E94F53884
:103F2000CB016AE070E00E94F538E12C00E08130BE
:103F3000910549F0E12C01E08230910521F00397D1
:103F400059F4E12C02E020E030E040E070E060E075
:103F500080E290E00E94040811E010931801109292
:103F60002A02AE0162E070E088E490E00E94D61080
:103F7000C8E4D0E0D0932E02C0932D028EE090E0F2
:103F800090932C0280932B0282E991E00E94F70922
:103F900080915D060E94A317D0932E02C0932D023C
:103FA00088E190E090932C0280932B028CE891E0C2
:103FB0000E94F70980915E0690915F060E949D170E
:103FC000E12C02E02CE031E140E060E270E080E2D0
:103FD00090E00E9404081092180110932A0284E6CF
:103FE00090E090932E0280932D0284E290E09093D3
:103FF0002C0280932B02C09131028091AE060C2ED0
:10400000000CDD0BAB2809F084C08C171D0621F4D1
:1040100088E791E00E94F7098091AF068C171D0692
:1040200021F483E791E00E94F7098091B0068C1794
:104030001D0621F48EE691E00E94F70904E210E0EB
:1040400010932E0200932D0210932C0200932B024A
:1040500087E891E00E94F709C60164E670E00E94DB
:10406000F538CB01CAE0D0E0BE010E94F53840919E
:104070005D06489F9001499F300D11248AE0482F2A
:10408000429FC001439F900D11240E9497171093E7
:104090002E0200932D0200E310E010932C020093F7
:1040A0002B0282E891E00E94F709C601BE010E943E
:1040B000F5386C01CB01BE010E94F53820915D06F8
:1040C000AC01249FC001259F900D11240E949717D9
:1040D00082E590E090932E0280932D0210932C02A3
:1040E00000932B028DE791E00E94F70980915D0615
:1040F000582F5C9DC0015D9D900D1124DF91CF91E3
:104100001F910F91EF90DF90CF90BF90AF900C94E4
:104110009717FE01E255F94F9081981304C089E684
:1041200091E00E94F709C35AD94FFE01EF5AFF4FA1
:1041300090818091AF06981304C084E691E00E94BC
:10414000F709CF5ADF4F98818091B006981376CF48
:104150008FE591E071CFEF920F931F93CF93DF9391
:10416000EC01009751F48091310270E060E0082E7C
:10417000000C990B0E945E1F05C0019709F073C0E7
:104180000E94330FE12C02E02CE031E140E060E2DC
:1041900070E080E290E00E94040804E210E01093D6
:1041A0002E0200932D0210932C0200932B028FEC11
:1041B00091E00E94F70910932E0200932D0280E3F4
:1041C00090E090932C0280932B0284EC91E00E946B
:1041D000F70980910402082E000C990B01960E94A9
:1041E000971788E0209709F055C00E94120A88238B
:1041F000A1F180915B0690915C0663E070E00E9403
:10420000F538892B51F580913102282F082E000CAA
:10421000330B9091AE064091AF06E1E042171306D2
:1042200029F09217130609F4E0E0E1959091040259
:10423000A92F092E000CBB0B4091B006A35AB94F11
:1042400042171306E1F0EF3FD9F49F3FC9F0AF5A90
:10425000BF4F8C9385E080933402DF91CF911F9103
:104260000F91EF900895E09131020E2E000CFF0B9C
:10427000E255F94F808161E070E090E07BCFE2E0B1
:10428000AF5ABF4F9C910E2E000CFF0BE255F94F19
:104290009083DFCF219709F042C00E94120A882341
:1042A000E1F280915B0690915C0663E070E00E9411
:1042B000F538892B91F680912F02282F082E000CBB
:1042C000330B9091B1064091B206E1E0421713061C
:1042D00029F09217130609F4E0E0E19590910402A9
:1042E000A92F092E000CBB0B4091B306A35AB94F5E
:1042F0004217130649F0EF3F41F49F3F31F0AC5AAB
:10430000BF4F8C9386E0A7CFE2E0AC5ABF4F9C91A1
:104310000E2E000CFF0BEF54F94F9083F2CF0E944A
:10432000120A882309F499CF80915B0690915C066C
:1043300063E070E00E94F538892B09F08ECFA091E0
:104340003102E0910402AE1701F10A2E000CBB0B02
:10435000A35AB94FCD018F5A9F4FEC013881AC5A07
:10436000BF4F2C910E2E000CFF0BBF01635A794FEB
:10437000EB01CF5ADF4F4881FC014083FB01EC5A2F
:10438000FF4F80818C933883208381E180932E01BD
:1043900064CF0C946638CF92DF92EF92FF926B015C
:1043A0007C01C114D104E104F10441F00E940E38F3
:1043B000A70196010E947C386B017C01C701B60100
:1043C000FF90EF90DF90CF9008951F920F920FB65D
:1043D0000F9211248F939F938091E1009091E100BF
:1043E000937F9093E10083FF0FC01092E90091E06A
:1043F0009093EB001092EC0092E39093ED001092FA
:104400004B0298E09093F00082FF22C093E09093DB
:10441000E9009091F200992319F09AE39093E80053
:1044200090913C02992341F090913C0291509093DD
:104430003C02911101C05D9A90914A02992341F08A
:1044400090914A02915090934A02911101C0289A8A
:1044500084FF18C08091E2008E7E81608093E2002C
:104460008091E1008F7E8093E10080913D028E7EFD
:10447000806180933D029F918F910F900FBE0F90AE
:104480001F90189580FFF7CF8091E2008E7E8061AB
:104490008093E2008091E1008E7E8093E100809124
:1044A0003D028E7E8160E5CF1F920F920FB60F9274
:1044B0001124CF92DF92EF92FF920F931F932F93CD
:1044C0003F934F935F936F937F938F939F93AF939C
:1044D000BF93EF93FF93CF93DF93CDB7DEB76C9786
:1044E000DEBFCDBF1092E9008091E80083FF25C0B8
:1044F00068E0CE0145960E94B30782EF8093E80002
:104500008D8987FF39C09091E80090FFFCCF982FEC
:10451000907609F034C19E894F89588D2F89F88C87
:10452000911131C0803861F580913B028093F10098
:104530001092F1008EEF8093E8006C960FB6F8941D
:10454000DEBF0FBECDBFDF91CF91FF91EF91BF9145
:10455000AF919F918F917F916F915F914F913F911B
:104560002F911F910F91FF90EF90DF90CF900F90C0
:104570000FBE0F901F9018959EEF9093E800C7CF45
:104580001092F100D5CF913059F48111D3CF413041
:10459000510581F680913B028D7F80933B02CACF0B
:1045A000933049F48111C6CF4130510519F68091FD
:1045B0003B028260F2CF953041F48091E80080FFA9
:1045C000FCCF20682093E300B5CF963009F0A9C056
:1045D0000B8D1C8D22E01092E9001092390210928E
:1045E0003802F2122EC010923702109236020E9448
:1045F00082071F8299E09983FA8291E09E8390EA74
:1046000098879AEF99872091380230913902275F75
:104610003F4F3C832B838D831092E9001092390227
:1046200010923802109337020093360249E050E0AE
:10463000BE016F5F7F4F80E00E945C070E9482078F
:1046400079CF10933702009336020E941806DC01DE
:1046500012960D911C910115110509F451C1D80153
:10466000ED91FC910480F581E02DBE016B5E7F4FE2
:10467000C8010995009709F03EC1F8010085118530
:10468000EACFF3E0FF120EC08F89882309F440C0FF
:10469000823061F440E867E083EA99E00E94D02428
:1046A000811148CF81E28093EB0047CF813029F41C
:1046B00040E86BE087E999E0F1CF833099F70E94F9
:1046C0001806DC011296ED90FC908E010F5F1F4FD3
:1046D0006801E114F10479F0D701ED91FC910680B5
:1046E000F781E02DB801C7010995080F111DF701E9
:1046F000E084F184EECFD8011C92F60101900020F5
:10470000E9F73197BF016C197D0940E0C601C6CFBA
:1047100061E879E0FB01449150E080E80E945C0789
:1047200009CF973009F4BECF983021F481E080930F
:10473000F10000CF993009F0FDCE837009F0B2CFBF
:10474000E0E5F1E081E031E096E32191222371F090
:104750008093E9003093EB00DF0111972C912093B7
:10476000EC009093ED008F5F873079F78EE78093B0
:10477000EA001092EA008F8980934B02DBCE8B8D8A
:104780009C8D1092E9001092390210923802909399
:10479000370280933602898D811192C08E899D895E
:1047A000913A49F4813209F07DCF47E050E066E26A
:1047B00071E080E0B3CF913209F074CF833269F4B5
:1047C0008F89988DB0E0A0E080932201909323011F
:1047D000A0932401B0932501ADCE803269F480917D
:1047E000E80082FFFCCF67E086E291E00E94B30719
:1047F0008BEF8093E8009ECE823209F09BCE8F89AA
:1048000080932D01EEEFFFE7859194918B3F9C4DB6
:1048100051F1E0E0F8E08091260190912701A0910C
:104820002801B0912901803B9440A105B105F1F424
:1048300080912D0180FD1AC0EE3F8AE0F80789F5CE
:1048400087E797E7918380838091600080933A02A5
:1048500088E19BE00FB6F894A895809360000FBEA6
:104860009093600067CEEEEFFAE0D5CF8081918122
:104870008737974709F05ECEA895809160008861E0
:104880008093600080913A0280936000EE3F2AE0BE
:10489000F20789F08091FE0A9091FF0A918380834C
:1048A00049CE808191818737980751F29093FF0A12
:1048B0008093FE0AC5CF1092FF0A1092FE0A3ACEEC
:1048C0000E941806DC0112960D911C91011511052C
:1048D00009F4E8CED801ED91FC910190F081E02D32
:1048E000BE016B5E7F4FC8010995811123CEF8018F
:1048F00000851185EBCF181619060CF41BCED2CE0D
:10490000F1E0FF12BECE65E879E004CF0F920FB65A
:104910008F939F93EF93FF93809106028D5F8D3766
:1049200008F08D5780930602EDE0F2E080818E4F13
:10493000808391819F4F918382818F4F8283838176
:104940008F4F8383E7E0F2E080818F5F80838181F6
:104950008F4F818382818F4F828383818F4F8383A7
:104960008FB18F6066991C9B88278F3681F4809168
:104970000502981B963068F0E0E0F8E087E7808356
:10498000818388E180936000F0936000FFCF909373
:104990000502FF91EF919F918F910FBE0F90189597
:1049A000EF92FF920F931F93CF93DF93F82E192F5F
:1049B000E62E042F81E0860F880F0E942E0783E0E9
:1049C0000E942E07CF2DD12FEC0EFD2EF11CCE15FF
:1049D000DF05B9F007FF13C0FE0184910E942E0786
:1049E000182F80E00E942E07812321968111EFCF9E
:1049F000DF91CF911F910F91FF90EF9008958881E3
:104A0000EDCF81E0F5CFE6EBF6E01382128288EE7F
:104A100093E0A0E0B0E084839583A683B7838AEE19
:104A200091E0918380838FEF9FEF95878487E6E005
:104A3000F7E0138212828CEF91E0918380830895D6
:104A4000CDB7DEB7A997DEBFCDBF789483E084BD34
:104A500083E085BD81E080936E00E1E8F0E083E0D3
:104A60008083E0E881E08083E1E983E08083E0E91E
:104A700081E08083E1EC87E08083E3EC81E0808368
:104A8000E0EC82E08083E2EC81E08083EAE787E08B
:104A900080838068808310924B0210923B021092B8
:104AA0003D028091D70081608093D70080EA809397
:104AB000D80089B5806189BD89B5826089BD09B496
:104AC00000FEFDCF0E94B0058091D8008F7C8061F0
:104AD0008093D8008091E000807F8093E0008091F7
:104AE000E1008E7E8093E1008DE08093E200559A94
:104AF000209A81EC80937C0085B1806F85B984B168
:104B0000877E84B984B1876E84B95E9A5F988AB1D2
:104B1000806D8AB9769A6E9881B3806F81BB8998CF
:104B200080B38D7080BB80E58CBD81E08DBD85E05C
:104B300090E00E9444095F9A85E090E00E94440959
:104B40005E985C98EAE8F8E084918EBD00000DB4B0
:104B500007FEFDCF319608E0E739F007A9F75C9A28
:104B600081E8809364008091650081608093650096
:104B700080E00E94A10580E80E94120A882381F04B
:104B80005C9885EA8EBD00000DB407FEFDCF5C9AEF
:104B90002E982F982D9881E083BF889513BEFCCF67
:104BA00084E00E94120A882309F448C02D9884E802
:104BB0000E94120A8823E1F00E94420988EC90E0EA
:104BC0000E9444092F9882E090E00E9466388F3F4F
:104BD00029F06FEF82E090E00E946E3884EF91E060
:104BE0000E9444092F9A84E80E94120A8111FBCF87
:104BF00084E10E94120A8823E1F00E94420988ECB5
:104C000090E00E9444092E9882E090E00E9466386D
:104C1000882329F060E082E090E00E946E3884EF03
:104C200091E00E9444092E9A84E10E94120A8111A7
:104C3000FBCF88EC90E00E944409B2CF0E94420969
:104C400082E090E00E94C921882309F4C4C03E9A02
:104C50003F9A81E090E00E94C921182F1470712EB4
:104C600081FF12C011112E9861EF262E33243A9441
:104C700008E010E080E40E94120A882309F4AEC024
:104C80002E9A2F9A0E94420982E390E00E944409E2
:104C90000E945F098111F8CF82E3809309015E9A37
:104CA000E4E1F0E081EB9CEF60EF7FEF259135913F
:104CB000559145912851354909F4CA0180930B0259
:104CC00090930C0225913591559145912851354984
:104CD00009F4BA0160934C0670934D068BEA0E946A
:104CE0003A090E940105811122C081E0809360068B
:104CF00080936106809362068093660680936706C0
:104D000080936806809369061092AE0692E09093B5
:104D1000AF068093B0068093B1061092B2069093CE
:104D2000B30680935D0610925F0610925E060E94A5
:104D30003105809164008E7F8093640080917A00B9
:104D4000806480937A0080917A0086FDFCCF009188
:104D50007800109179000E94C505AB01BC01C80123
:104D6000B0E0A0E0DC01992788278C019D01040FA9
:104D7000151F261F371FC901B8012091640021604B
:104D800020936400611571058105910511F00E9461
:104D90005D38A3E06A2E712CBAE04B2E512CF4E65C
:104DA0002F2E312C2FB7F89480910D0290910E0286
:104DB000A0910F02B09110022FBF20911102222367
:104DC00009F4DCC01092110280E090E0892B51F3CD
:104DD0000E940000E4CF3E983F983BCF772031F00F
:104DE00024E02216310411F42E9A2F9881E00E94BB
:104DF000A105910137FE04C0222733272219330968
:104E000027703327C10137FC079653E095958795A6
:104E10005A95E1F737FE05C00197A801421B530BD5
:104E20009A01BC017695762F662777956795645B26
:104E30007D4FF12CE12C2801421A530A8E3F5FEF7F
:104E4000950709F43EC0DB0150E040E0F701E6526F
:104E5000F84F5F014B01F0E88F0E911C8F3F9807D0
:104E600081F0F501E40FF51FE491022E01C0EE0F71
:104E70000A94EAF75496FC915497EF2B5496EC93CE
:104E8000549721153105B9F0F501E40FF51F649031
:104E90006401C40ED51EE62DF0E0042C02C0F59589
:104EA000E7950A94E2F7FC83EB83F6016488FB81C3
:104EB0006F2AF601648A4F5F5F4F1196483551059E
:104EC00069F60196F8E5EF0EF11C60587F4F40EB54
:104ED000E416F10409F0B2CF80E00E94A1058FE052
:104EE00090E00E9444095FEF251A350A69E1261611
:104EF000310409F0BFCE772011F02F9A2D9880E968
:104F000091E00E9444090E94420981E090E00E94E1
:104F1000C92180FFB9CE8AE090E00E94C9219FEFAD
:104F2000980F9E3F08F0B0CE22E330E030932E027F
:104F300020932D0228E330E030932C0220932B02A3
:104F40000BE010E01A830983682F86E097E00E9447
:104F50007F0989819A810E94C92109811A810F5F85
:104F60001F4F1A8309830131110571F780E00E94F8
:104F7000A10588EE93E00E94440986CE209112029A
:104F8000182F121B212F30910901131748F42F5F9E
:104F9000231708F019CF81E083BF889513BE14CF83
:104FA00021E0209311028093120280915B06909180
:104FB0005C06019690935C0680935B06B3010E94A9
:104FC000F5389A838983892B21F40E945F098093A5
:104FD0003502E0913402EF30C8F4F0E0EE50F84DC5
:104FE0000C941D390128062806280C282A28242973
:104FF000ED29872AA32ABD2AD72AF22A132B292B87
:10500000392B0E94010583E0809334025E9881E091
:105010000E94A1055E9AD8CEE12C01E020E93BE197
:1050200040E070E060E090E080E00E940408E0E191
:10503000EE2E00E024E93BE240E065E170E089E12A
:1050400090E00E94040888E00E94120A8823F1F28E
:1050500084E0DACF82E38093090180E280932E011D
:105060001092330280915D068A3039F481E080939A
:105070006306809364068093650680E40E94120AAA
:10508000882349F029813A81232B29F48091210139
:105090008F5F8093210180E20E94120A882349F0E9
:1050A00049815A81452B29F48091210181508093B7
:1050B000210180912101873019F481E08093210141
:1050C00080912101811103C086E08093210110911C
:1050D000210170E060E0812F90E00E94C80D123045
:1050E00041F588E00E94120A882331F069817A81B3
:1050F00085E0672B09F4A1C010912101153051F50D
:1051000088E00E94120A882309F480CF80915B0610
:1051100090915C06B3010E94F538892B09F076CF97
:1051200080913202811103C081E0809332028EE0CF
:105130006BCF133009F071C088E00E94120A8823F7
:1051400039F089819A81892B19F486E080933402A1
:1051500010912101163009F059CF01E020E240E81A
:1051600070E060E090E080E00E94290A4091AE0685
:1051700050E021E030E070E060E08DE090E00E94DF
:10518000A7124091AF0650E021E030E070E060E00F
:105190008FE290E00E94A7124091B00650E021E01B
:1051A00030E070E060E087E590E00E94A71270E1D7
:1051B000E72E00E028E73DE240E070E060E090E0AC
:1051C00080E00E940408E12C02E02CE031E140E0A4
:1051D00060E270E081E290E00E94040824E230E0A6
:1051E00030932E0220932D0230932C0220932B0219
:1051F00081E299E00E94F70944E250E050932E02C8
:1052000040932D028EE290E090932C0280932B022B
:1052100087E199E00E94F709F9CE143011F00C945F
:10522000543788E00E94120A882309F491CFA9819B
:10523000BA81AB2B09F08CCF8DE0809334025CCF28
:105240000E94A3170C948A3785E090E00E948B0D92
:1052500080913102082E000C990BFC01E35AF94FA2
:1052600023812130C1F470E060E00E945E1F88E07D
:105270000E94120A882309F4AEC080915B069091C7
:105280005C06B3010E94F538892B09F0A4C08BE0BD
:1052900080933402A0C0E12C00E020E834E340E039
:1052A00070E060E090E080E00E94040820E834E3D1
:1052B00040E060E270E090E080E00E94040820E8B6
:1052C00034E340E070E060E080E290E00E94040897
:1052D00011E01093180110922A0268E470E07093B4
:1052E0002E0260932D0282E090E090932C02809336
:1052F0002B0285EC98E00E94F709A8E4B0E0B09397
:105300002E02A0932D028EE090E090932C028093C9
:105310002B028FEB98E00E94F7098CEB98E00E943B
:10532000F709E8E4F0E0F0932E02E0932D0288E123
:1053300090E090932C0280932B0286EB98E00E94E1
:10534000F70982EB98E00E94F70902E02CE031E1D6
:1053500040E060E270E080E290E00E940408109279
:10536000180110932A0204E210E010932E02009319
:105370002D0210932C0200932B028DEA98E00E94DC
:10538000F70989EA98E00E94F70910932E0200932A
:105390002D0220E330E030932C0220932B0284EA8C
:1053A00098E00E94F70980EA98E00E94F70982E5F8
:1053B00090E090932E0280932D0240E350E05093B2
:1053C0002C0240932B028BE998E00E94F70987E9B1
:1053D00098E00E94F70984E037CE8091210170E0C7
:1053E00060E090E00E94C80D80E40E94120A8823C9
:1053F00049F069817A81672B29F4809130028F5FAF
:105400008093300280E20E94120A882349F0898149
:105410009A81892B29F48091300281508093300247
:1054200080913002843014F010923002809130026A
:1054300087FF03C083E080933002809130028111A6
:1054400018C0E12C00E02CE83BE540E070E060E0B3
:1054500080E490E00E94040888E00E94120A8823F9
:1054600009F4B9CFA981BA8187E0AB2B09F410CF39
:10547000B2CF8130C1F4E12C01E02CE83BE540E003
:1054800070E060E080E490E00E94040888E00E9400
:10549000120A882309F49FCFE981FA8188E0EF2B73
:1054A00009F4F6CE98CF823011F00C94B037E12C8D
:1054B00002E02CE83BE540E070E060E080E490E052
:1054C0000E94040888E00E94120A882309F483CF0E
:1054D00009811A8189E0012B09F4DACE7CCFE12C15
:1054E00003E02CE83BE540E070E060E080E490E021
:1054F0000E94040888E00E94120A882309F46BCFF6
:1055000029813A81232B09F066CF8AE0C1CE67E07A
:1055100070E090E080E00E940E0D60912F02062E58
:10552000000C770B90E080E00E94291084E00E943C
:10553000120A882309F46ACD49815A81452B09F062
:1055400065CD86E061CD67E170E088E090E00E9483
:105550000E0D60912F02062E000C770B81E090E07B
:105560000E94291084E00E94120A882309F44ECD7B
:1055700069817A81672B29F349CD67E270E088E180
:1055800090E00E940E0D60912F02062E000C770B0A
:1055900082E090E00E94291084E00E94120A882391
:1055A00009F434CD89819A81892B59F22FCD67E492
:1055B00070E088E290E00E940E0D60912F02062EAE
:1055C000000C770B83E090E00E94291084E00E9499
:1055D000120A882309F41ACDA981BA81AB2B09F4E8
:1055E000B0CF14CD0E94550D8091310270E060E083
:1055F000082E000C990B0E945E1F90E080E00E9434
:10560000AB2084E00E94120A882309F4FFCC809129
:105610005B0690915C06B3010E94F538892B09F076
:10562000F5CC85E0F1CC0E94550D0E94330F81E04E
:1056300090E00E94AB2084E00E94120A882309F4C3
:10564000E5CC80915B0690915C06B3010E94F53831
:10565000ABCF0E94B81484E00E94120A882309F498
:10566000D5CCE981FA81EF2B09F0D0CC0E9431052D
:10567000EFCCE0912E01E150E03208F006C2F0E0FC
:10568000EC5BF44D0C941D39642B972DA531452D01
:10569000D631F231083224323A3254326832A432EE
:1056A000F6323C3351338633CE33F8330F34333450
:1056B0007434AE34F5343C3570359F35CA35E53534
:1056C00012362336343652361092290201E010E0A9
:1056D00020E030E000931D0110931E0120931F0174
:1056E0003093200110922802109227021092260275
:1056F00010922502009314011093150120931601B6
:105700003093170110922402109223021092220269
:105710001092210210924F0610924E06109218021B
:1057200010921702109251061092500610921A020F
:1057300010921902109253061092520610921C02F7
:1057400010921B02109255061092540610921E02DF
:1057500010921D02109257061092560610922002C7
:1057600010921F02109233021091320219831630E8
:1057700010F00C94393781E080930C018091320253
:105780008E31C0F406E011E01A83098363E070E013
:1057900080E090E00E94CB216A5F7F4F8F4F9F4F48
:1057A000A981BA816D93BA83A983E9E0F1E0EA1790
:1057B000FB0761F7809132028E518E31D0F563E0A4
:1057C00070E080E090E00E94CB216B018B0163E0F0
:1057D00070E080E090E00E94CB21F601EA5FFE4F8E
:1057E000675F7F4F8F4F9F4F608366E0E62E61E0DB
:1057F000F62E1A82198229813A812017310761F029
:1058000063E070E080E090E00E94CB216A5F7F4F10
:105810008F4F9F4FD7016C93E981FA813196FA83BC
:10582000E983FFEFEF1AFF0A29813A81233031051E
:1058300011F7809132028C538E3178F506E011E039
:105840001A83098362E070E080E090E00E94CB213F
:10585000675F7F4F8F4F9F4FA981BA816D93BA8346
:10586000A983E9E0F1E0EA17FB0761F766E070E081
:1058700080E090E00E94CB216B017C0163E070E04E
:1058800080E090E00E94CB216A5F7E4FF6E0CF0E71
:10589000D11CE11CF11CDB01CC92809132028A35D3
:1058A000C0F006E011E01A83098363E070E080E055
:1058B00090E00E94CB21675F7F4F8F4F9F4FA98160
:1058C000BA816D93BA83A983E9E0F1E0EA17FB0797
:1058D00061F7209132022F3419F02B3309F018C1EF
:1058E0008CE08093060180930701809308012436A1
:1058F00039F48DE0809306018093070180930801BD
:1059000030912E0101E111E01A830983A981BA8146
:105910004D91BA83A98381E090E0413011F090E08D
:1059200080E0880F991FFC01EA5AFE4F8081918127
:1059300060E177E20E94F53861113CE0E981FA818B
:10594000E451F14019F730932E01203190F441E1F8
:10595000E42E41E0F42E68E070E080E090E00E94E8
:10596000CB21D7016D937D01E981FA81EA17FB070D
:1059700091F7809132028051843090F431E1E32E2E
:1059800031E0F32E68E170E080E090E00E94CB21EE
:10599000D7016D937D01B4E1EB16B1E0FB0691F701
:1059A0008091320284518131B0F421E1E22E21E074
:1059B000F22E60E170E080E090E00E94CB21685F11
:1059C0007F4F8F4F9F4FF70161937F0129813A816C
:1059D0002E173F0771F78091320285528830B0F45C
:1059E00091E1E92E91E0F92E60E270E080E090E034
:1059F0000E94CB21685F7F4F8F4F9F4FD7016D93E0
:105A00007D01B4E1EB16B1E0FB0671F78091320243
:105A10008D528431B0F481E1E82E81E0F82E60E10E
:105A200070E080E090E00E94CB21685E7F4F8F4F56
:105A30009F4FF70161937F01F4E1EF16F1E0FF065C
:105A400071F780913202813490F060E370E080E081
:105A500090E00E94CB21685E7F4F8F4F9F4FD8010F
:105A60006D938D01E981FA81EA17FB0771F7809147
:105A700032028F3409F050C089E38093110183E42E
:105A80008093120180E48093130180E80E94120A3F
:105A9000882309F4BBCA80912E018451863008F016
:105AA000B5CA81E08093180110922A0200E02BE031
:105AB00040E870E060E090E080E00E94290AE2E0C7
:105AC000F0E0F0932E02E0932D0201E010E010933D
:105AD0002C0200932B0282E199E00E94F709609169
